{
  "address": "0xD292bdec1952801b5923CbCBE87C2174474d036d",
  "abi": [
    {
      "inputs": [],
      "name": "nftMarkeetplace__notApprovedNFT",
      "type": "error"
    },
    {
      "inputs": [],
      "name": "nftMarketPlace__nftPriceZero",
      "type": "error"
    },
    {
      "inputs": [
        {
          "internalType": "address",
          "name": "nftAddress",
          "type": "address"
        },
        {
          "internalType": "uint256",
          "name": "tokenId",
          "type": "uint256"
        }
      ],
      "name": "nftMarketplace__AlreadyListed",
      "type": "error"
    },
    {
      "inputs": [],
      "name": "nftMarketplace__NoProceeds",
      "type": "error"
    },
    {
      "inputs": [],
      "name": "nftMarketplace__TransactionFailed",
      "type": "error"
    },
    {
      "inputs": [
        {
          "internalType": "address",
          "name": "nftAddress",
          "type": "address"
        },
        {
          "internalType": "uint256",
          "name": "token",
          "type": "uint256"
        },
        {
          "internalType": "uint256",
          "name": "price",
          "type": "uint256"
        }
      ],
      "name": "nftMarketplace__insufficientFundtoBuy",
      "type": "error"
    },
    {
      "inputs": [
        {
          "internalType": "address",
          "name": "nftAddress",
          "type": "address"
        },
        {
          "internalType": "uint256",
          "name": "tokenId",
          "type": "uint256"
        }
      ],
      "name": "nftMarketplace__isNotListed",
      "type": "error"
    },
    {
      "inputs": [],
      "name": "nftMarketplace__notOwner",
      "type": "error"
    },
    {
      "anonymous": false,
      "inputs": [
        {
          "indexed": true,
          "internalType": "address",
          "name": "Buyer",
          "type": "address"
        },
        {
          "indexed": true,
          "internalType": "address",
          "name": "nftAddress",
          "type": "address"
        },
        {
          "indexed": true,
          "internalType": "uint256",
          "name": "tokenId",
          "type": "uint256"
        },
        {
          "indexed": false,
          "internalType": "uint256",
          "name": "price",
          "type": "uint256"
        }
      ],
      "name": "ItemBrought",
      "type": "event"
    },
    {
      "anonymous": false,
      "inputs": [
        {
          "indexed": true,
          "internalType": "address",
          "name": "nftAddress",
          "type": "address"
        },
        {
          "indexed": true,
          "internalType": "uint256",
          "name": "tokenId",
          "type": "uint256"
        }
      ],
      "name": "ItemCancelled",
      "type": "event"
    },
    {
      "anonymous": false,
      "inputs": [
        {
          "indexed": true,
          "internalType": "address",
          "name": "seller",
          "type": "address"
        },
        {
          "indexed": true,
          "internalType": "address",
          "name": "nftAddress",
          "type": "address"
        },
        {
          "indexed": true,
          "internalType": "uint256",
          "name": "tokenId",
          "type": "uint256"
        },
        {
          "indexed": false,
          "internalType": "uint256",
          "name": "price",
          "type": "uint256"
        }
      ],
      "name": "ItemListed",
      "type": "event"
    },
    {
      "inputs": [
        {
          "internalType": "address",
          "name": "nftAddress",
          "type": "address"
        },
        {
          "internalType": "uint256",
          "name": "tokenId",
          "type": "uint256"
        }
      ],
      "name": "buyItem",
      "outputs": [],
      "stateMutability": "payable",
      "type": "function"
    },
    {
      "inputs": [
        {
          "internalType": "address",
          "name": "nftAddress",
          "type": "address"
        },
        {
          "internalType": "uint256",
          "name": "tokenId",
          "type": "uint256"
        }
      ],
      "name": "cancelListing",
      "outputs": [],
      "stateMutability": "nonpayable",
      "type": "function"
    },
    {
      "inputs": [
        {
          "internalType": "address",
          "name": "nftAddress",
          "type": "address"
        },
        {
          "internalType": "uint256",
          "name": "tokenId",
          "type": "uint256"
        }
      ],
      "name": "getListing",
      "outputs": [
        {
          "components": [
            {
              "internalType": "uint256",
              "name": "price",
              "type": "uint256"
            },
            {
              "internalType": "address",
              "name": "seller",
              "type": "address"
            }
          ],
          "internalType": "struct nftMarketplace.ListItem",
          "name": "",
          "type": "tuple"
        }
      ],
      "stateMutability": "view",
      "type": "function"
    },
    {
      "inputs": [
        {
          "internalType": "address",
          "name": "seller",
          "type": "address"
        }
      ],
      "name": "getProceeds",
      "outputs": [
        {
          "internalType": "uint256",
          "name": "",
          "type": "uint256"
        }
      ],
      "stateMutability": "view",
      "type": "function"
    },
    {
      "inputs": [
        {
          "internalType": "address",
          "name": "nftAddress",
          "type": "address"
        },
        {
          "internalType": "uint256",
          "name": "tokenId",
          "type": "uint256"
        },
        {
          "internalType": "uint256",
          "name": "price",
          "type": "uint256"
        }
      ],
      "name": "listingNft",
      "outputs": [],
      "stateMutability": "nonpayable",
      "type": "function"
    },
    {
      "inputs": [
        {
          "internalType": "address",
          "name": "nftAddress",
          "type": "address"
        },
        {
          "internalType": "uint256",
          "name": "tokenId",
          "type": "uint256"
        },
        {
          "internalType": "uint256",
          "name": "newPrice",
          "type": "uint256"
        }
      ],
      "name": "updateListing",
      "outputs": [],
      "stateMutability": "nonpayable",
      "type": "function"
    },
    {
      "inputs": [],
      "name": "withDrawProceeds",
      "outputs": [],
      "stateMutability": "nonpayable",
      "type": "function"
    }
  ],
  "transactionHash": "0x17d5230295f45fe059ce4e3626cdfd7a399d8ca779fc4bd9ced5fabef23738a1",
  "args": [],
  "numDeployments": 1,
  "solcInputHash": "cd7aa645dacccae73329cf02521a7e78",
  "bytecode": "0x608060405234801561001057600080fd5b5061168b806100206000396000f3fe6080604052600436106100705760003560e01c80639f37092a1161004e5780639f37092a14610118578063b2ddee0614610134578063c6890de51461015d578063f772adf11461017457610070565b806330cfeda91461007557806360aa539a146100b257806388700d1c146100db575b600080fd5b34801561008157600080fd5b5061009c600480360381019061009791906112f6565b61019d565b6040516100a99190611538565b60405180910390f35b3480156100be57600080fd5b506100d960048036038101906100d49190611390565b6101e6565b005b3480156100e757600080fd5b5061010260048036038101906100fd9190611350565b61065a565b60405161010f919061151d565b60405180910390f35b610132600480360381019061012d9190611350565b610724565b005b34801561014057600080fd5b5061015b60048036038101906101569190611350565b610b04565b005b34801561016957600080fd5b50610172610ddb565b005b34801561018057600080fd5b5061019b60048036038101906101969190611390565b610f45565b005b6000600160008373ffffffffffffffffffffffffffffffffffffffff1673ffffffffffffffffffffffffffffffffffffffff168152602001908152602001600020549050919050565b828260008060008473ffffffffffffffffffffffffffffffffffffffff1673ffffffffffffffffffffffffffffffffffffffff1681526020019081526020016000206000838152602001908152602001600020604051806040016040529081600082015481526020016001820160009054906101000a900473ffffffffffffffffffffffffffffffffffffffff1673ffffffffffffffffffffffffffffffffffffffff1673ffffffffffffffffffffffffffffffffffffffff168152505090506000816000015111156102f25782826040517f7a8c020a0000000000000000000000000000000000000000000000000000000081526004016102e99291906114bd565b60405180910390fd5b858533600083905060008173ffffffffffffffffffffffffffffffffffffffff16636352211e856040518263ffffffff1660e01b81526004016103359190611538565b60206040518083038186803b15801561034d57600080fd5b505afa158015610361573d6000803e3d6000fd5b505050506040513d601f19601f820116820180604052508101906103859190611323565b90508273ffffffffffffffffffffffffffffffffffffffff168173ffffffffffffffffffffffffffffffffffffffff16146103ec576040517ff53d32d900000000000000000000000000000000000000000000000000000000815260040160405180910390fd5b60008911610426576040517fb7bb543700000000000000000000000000000000000000000000000000000000815260040160405180910390fd5b60008b90503073ffffffffffffffffffffffffffffffffffffffff168173ffffffffffffffffffffffffffffffffffffffff1663081812fc8d6040518263ffffffff1660e01b815260040161047b9190611538565b60206040518083038186803b15801561049357600080fd5b505afa1580156104a7573d6000803e3d6000fd5b505050506040513d601f19601f820116820180604052508101906104cb9190611323565b73ffffffffffffffffffffffffffffffffffffffff1614610518576040517f78ec75ce00000000000000000000000000000000000000000000000000000000815260040160405180910390fd5b60405180604001604052808b81526020013373ffffffffffffffffffffffffffffffffffffffff168152506000808e73ffffffffffffffffffffffffffffffffffffffff1673ffffffffffffffffffffffffffffffffffffffff16815260200190815260200160002060008d81526020019081526020016000206000820151816000015560208201518160010160006101000a81548173ffffffffffffffffffffffffffffffffffffffff021916908373ffffffffffffffffffffffffffffffffffffffff1602179055509050508a8c73ffffffffffffffffffffffffffffffffffffffff163373ffffffffffffffffffffffffffffffffffffffff167fd547e933094f12a9159076970143ebe73234e64480317844b0dcb36117116de48d6040516106449190611538565b60405180910390a4505050505050505050505050565b610662611287565b6000808473ffffffffffffffffffffffffffffffffffffffff1673ffffffffffffffffffffffffffffffffffffffff1681526020019081526020016000206000838152602001908152602001600020604051806040016040529081600082015481526020016001820160009054906101000a900473ffffffffffffffffffffffffffffffffffffffff1673ffffffffffffffffffffffffffffffffffffffff1673ffffffffffffffffffffffffffffffffffffffff1681525050905092915050565b818160008060008473ffffffffffffffffffffffffffffffffffffffff1673ffffffffffffffffffffffffffffffffffffffff1681526020019081526020016000206000838152602001908152602001600020604051806040016040529081600082015481526020016001820160009054906101000a900473ffffffffffffffffffffffffffffffffffffffff1673ffffffffffffffffffffffffffffffffffffffff1673ffffffffffffffffffffffffffffffffffffffff16815250509050600081600001511161082f5782826040517fb9e2dd450000000000000000000000000000000000000000000000000000000081526004016108269291906114bd565b60405180910390fd5b60008060008773ffffffffffffffffffffffffffffffffffffffff1673ffffffffffffffffffffffffffffffffffffffff1681526020019081526020016000206000868152602001908152602001600020604051806040016040529081600082015481526020016001820160009054906101000a900473ffffffffffffffffffffffffffffffffffffffff1673ffffffffffffffffffffffffffffffffffffffff1673ffffffffffffffffffffffffffffffffffffffff16815250509050806000015134101561093e57858582600001516040517f96f22fcd000000000000000000000000000000000000000000000000000000008152600401610935939291906114e6565b60405180910390fd5b3460016000836020015173ffffffffffffffffffffffffffffffffffffffff1673ffffffffffffffffffffffffffffffffffffffff1681526020019081526020016000206000828254610991919061155e565b925050819055506000808773ffffffffffffffffffffffffffffffffffffffff1673ffffffffffffffffffffffffffffffffffffffff16815260200190815260200160002060008681526020019081526020016000206000808201600090556001820160006101000a81549073ffffffffffffffffffffffffffffffffffffffff0219169055505060008690508073ffffffffffffffffffffffffffffffffffffffff166342842e0e836020015133896040518463ffffffff1660e01b8152600401610a5f93929190611486565b600060405180830381600087803b158015610a7957600080fd5b505af1158015610a8d573d6000803e3d6000fd5b50505050858773ffffffffffffffffffffffffffffffffffffffff163373ffffffffffffffffffffffffffffffffffffffff167f4d2132790e4cedd11d71f79941b3964f4d97f8fd43ce7498eb546513e47e394f8560000151604051610af39190611538565b60405180910390a450505050505050565b818133600083905060008173ffffffffffffffffffffffffffffffffffffffff16636352211e856040518263ffffffff1660e01b8152600401610b479190611538565b60206040518083038186803b158015610b5f57600080fd5b505afa158015610b73573d6000803e3d6000fd5b505050506040513d601f19601f82011682018060405250810190610b979190611323565b90508273ffffffffffffffffffffffffffffffffffffffff168173ffffffffffffffffffffffffffffffffffffffff1614610bfe576040517ff53d32d900000000000000000000000000000000000000000000000000000000815260040160405180910390fd5b868660008060008473ffffffffffffffffffffffffffffffffffffffff1673ffffffffffffffffffffffffffffffffffffffff1681526020019081526020016000206000838152602001908152602001600020604051806040016040529081600082015481526020016001820160009054906101000a900473ffffffffffffffffffffffffffffffffffffffff1673ffffffffffffffffffffffffffffffffffffffff1673ffffffffffffffffffffffffffffffffffffffff16815250509050600081600001511115610d0a5782826040517f7a8c020a000000000000000000000000000000000000000000000000000000008152600401610d019291906114bd565b60405180910390fd5b6000808b73ffffffffffffffffffffffffffffffffffffffff1673ffffffffffffffffffffffffffffffffffffffff16815260200190815260200160002060008a81526020019081526020016000206000808201600090556001820160006101000a81549073ffffffffffffffffffffffffffffffffffffffff02191690555050888a73ffffffffffffffffffffffffffffffffffffffff167f6be0c8480cb6f0bffcd4a654fb162c986ba528d5ff0e743ee21b1fc900fa264f60405160405180910390a350505050505050505050565b6000600160003373ffffffffffffffffffffffffffffffffffffffff1673ffffffffffffffffffffffffffffffffffffffff16815260200190815260200160002054905060008111610e59576040517f88a9e17b00000000000000000000000000000000000000000000000000000000815260040160405180910390fd5b6000600160003373ffffffffffffffffffffffffffffffffffffffff1673ffffffffffffffffffffffffffffffffffffffff1681526020019081526020016000208190555060003373ffffffffffffffffffffffffffffffffffffffff1682604051610ec490611471565b60006040518083038185875af1925050503d8060008114610f01576040519150601f19603f3d011682016040523d82523d6000602084013e610f06565b606091505b5050905080610f41576040517f2e37e1ab00000000000000000000000000000000000000000000000000000000815260040160405180910390fd5b5050565b828260008060008473ffffffffffffffffffffffffffffffffffffffff1673ffffffffffffffffffffffffffffffffffffffff1681526020019081526020016000206000838152602001908152602001600020604051806040016040529081600082015481526020016001820160009054906101000a900473ffffffffffffffffffffffffffffffffffffffff1673ffffffffffffffffffffffffffffffffffffffff1673ffffffffffffffffffffffffffffffffffffffff168152505090506000816000015111156110515782826040517f7a8c020a0000000000000000000000000000000000000000000000000000000081526004016110489291906114bd565b60405180910390fd5b858533600083905060008173ffffffffffffffffffffffffffffffffffffffff16636352211e856040518263ffffffff1660e01b81526004016110949190611538565b60206040518083038186803b1580156110ac57600080fd5b505afa1580156110c0573d6000803e3d6000fd5b505050506040513d601f19601f820116820180604052508101906110e49190611323565b90508273ffffffffffffffffffffffffffffffffffffffff168173ffffffffffffffffffffffffffffffffffffffff161461114b576040517ff53d32d900000000000000000000000000000000000000000000000000000000815260040160405180910390fd5b60008060008d73ffffffffffffffffffffffffffffffffffffffff1673ffffffffffffffffffffffffffffffffffffffff16815260200190815260200160002060008c8152602001908152602001600020604051806040016040529081600082015481526020016001820160009054906101000a900473ffffffffffffffffffffffffffffffffffffffff1673ffffffffffffffffffffffffffffffffffffffff1673ffffffffffffffffffffffffffffffffffffffff16815250509050898160000181815250508a8c73ffffffffffffffffffffffffffffffffffffffff163373ffffffffffffffffffffffffffffffffffffffff167fd547e933094f12a9159076970143ebe73234e64480317844b0dcb36117116de48d6040516112719190611538565b60405180910390a4505050505050505050505050565b604051806040016040528060008152602001600073ffffffffffffffffffffffffffffffffffffffff1681525090565b6000813590506112c681611627565b92915050565b6000815190506112db81611627565b92915050565b6000813590506112f08161163e565b92915050565b60006020828403121561130c5761130b61161f565b5b600061131a848285016112b7565b91505092915050565b6000602082840312156113395761133861161f565b5b6000611347848285016112cc565b91505092915050565b600080604083850312156113675761136661161f565b5b6000611375858286016112b7565b9250506020611386858286016112e1565b9150509250929050565b6000806000606084860312156113a9576113a861161f565b5b60006113b7868287016112b7565b93505060206113c8868287016112e1565b92505060406113d9868287016112e1565b9150509250925092565b6113ec816115b4565b82525050565b6113fb816115b4565b82525050565b600061140e600083611553565b915061141982611624565b600082019050919050565b60408201600082015161143a6000850182611453565b50602082015161144d60208501826113e3565b50505050565b61145c816115e6565b82525050565b61146b816115e6565b82525050565b600061147c82611401565b9150819050919050565b600060608201905061149b60008301866113f2565b6114a860208301856113f2565b6114b56040830184611462565b949350505050565b60006040820190506114d260008301856113f2565b6114df6020830184611462565b9392505050565b60006060820190506114fb60008301866113f2565b6115086020830185611462565b6115156040830184611462565b949350505050565b60006040820190506115326000830184611424565b92915050565b600060208201905061154d6000830184611462565b92915050565b600081905092915050565b6000611569826115e6565b9150611574836115e6565b9250827fffffffffffffffffffffffffffffffffffffffffffffffffffffffffffffffff038211156115a9576115a86115f0565b5b828201905092915050565b60006115bf826115c6565b9050919050565b600073ffffffffffffffffffffffffffffffffffffffff82169050919050565b6000819050919050565b7f4e487b7100000000000000000000000000000000000000000000000000000000600052601160045260246000fd5b600080fd5b50565b611630816115b4565b811461163b57600080fd5b50565b611647816115e6565b811461165257600080fd5b5056fea2646970667358221220fd49ec1c0ffefccc4778e78a1753ee40246670a2200095bd815c2dac758ccd5764736f6c63430008070033",
  "devdoc": {
    "kind": "dev",
    "methods": {},
    "version": 1
  },
  "userdoc": {
    "kind": "user",
    "methods": {},
    "version": 1
  },
  "storageLayout": {
    "storage": [
      {
        "astId": 2747,
        "contract": "contracts/nftMarketplace.sol:nftMarketplace",
        "label": "s_nftlisting",
        "offset": 0,
        "slot": "0",
        "type": "t_mapping(t_address,t_mapping(t_uint256,t_struct(ListItem)2626_storage))"
      },
      {
        "astId": 2751,
        "contract": "contracts/nftMarketplace.sol:nftMarketplace",
        "label": "s_proceeds",
        "offset": 0,
        "slot": "1",
        "type": "t_mapping(t_address,t_uint256)"
      }
    ],
    "types": {
      "t_address": {
        "encoding": "inplace",
        "label": "address",
        "numberOfBytes": "20"
      },
      "t_mapping(t_address,t_mapping(t_uint256,t_struct(ListItem)2626_storage))": {
        "encoding": "mapping",
        "key": "t_address",
        "label": "mapping(address => mapping(uint256 => struct nftMarketplace.ListItem))",
        "numberOfBytes": "32",
        "value": "t_mapping(t_uint256,t_struct(ListItem)2626_storage)"
      },
      "t_mapping(t_address,t_uint256)": {
        "encoding": "mapping",
        "key": "t_address",
        "label": "mapping(address => uint256)",
        "numberOfBytes": "32",
        "value": "t_uint256"
      },
      "t_mapping(t_uint256,t_struct(ListItem)2626_storage)": {
        "encoding": "mapping",
        "key": "t_uint256",
        "label": "mapping(uint256 => struct nftMarketplace.ListItem)",
        "numberOfBytes": "32",
        "value": "t_struct(ListItem)2626_storage"
      },
      "t_struct(ListItem)2626_storage": {
        "encoding": "inplace",
        "label": "struct nftMarketplace.ListItem",
        "members": [
          {
            "astId": 2623,
            "contract": "contracts/nftMarketplace.sol:nftMarketplace",
            "label": "price",
            "offset": 0,
            "slot": "0",
            "type": "t_uint256"
          },
          {
            "astId": 2625,
            "contract": "contracts/nftMarketplace.sol:nftMarketplace",
            "label": "seller",
            "offset": 0,
            "slot": "1",
            "type": "t_address"
          }
        ],
        "numberOfBytes": "64"
      },
      "t_uint256": {
        "encoding": "inplace",
        "label": "uint256",
        "numberOfBytes": "32"
      }
    }
  }
}